:100000000C942C090C9473090C9473090C947309C7
:100010000C9473090C9473090C9473090C94730970
:100020000C9473090C9473090C94CB230C949E24A8
:100030000C94D81A0C9473090C9473090C947309DA
:100040000C9473090C9473090C9473090C94730940
:100050000C9473090C94391B0C9473090C94730958
:100060000C9473090C9473090C9473090C94730920
:100070000C9473090C9473090C9473090C94730910
:100080000C9473090C9473090C9473090C94730900
:100090000C9473090C9473090C9473090C947309F0
:1000A0000C9473090C9473090C94730959005A0049
:1000B0005B005C005D005E005F006000610062004C
:1000C0000000AA00A900AC00AB00AE0000000000D8
:1000D0000000000000000000000000000000000020
:1000E00000000000000000000000000029003A00AD
:1000F0003B003C003D003E003F004000410042000C
:10010000430044004500460047004C0035001E00F7
:100110001F002000210022002300240025002600CB
:1001200027002D002E0000002A004A002B000000AE
:1001300014001A000800150017001C0018000C001D
:10014000120013002F00300031004B003900000076
:1001500004001600070009000A000B000D000E0045
:100160000F0033003400280000004E000000E100C2
:100170001D001B00060019000500110010003600CC
:10018000370038000000E10052004D00E000E300BD
:100190000000E200000000002C0000000000000051
:1001A000E2000000E000500051004F00010001009B
:1001B0000100010001000100010001000100010037
:1001C000000001000100010001000100000000002A
:1001D000000000000000000000000000000000001F
:1001E000000000000000000000000000010001000D
:1001F00001000100010001000100010001000100F7
:1002000001000100010001000100010001000100E6
:1002100001000100010001000100010001000100D6
:1002200001000100010000000100010001000000C8
:1002300001000100010001000100010001000100B6
:1002400001000100010001000100010001000000A7
:100250000100010001000100010001000100010096
:100260000100010001000100000001000000010088
:100270000100010001000100010001000100010076
:100280000100010000000100010001000100010067
:10029000000001000000000001000000000000005C
:1002A0000100010001000100010001000100010046
:1002B0000100010001000100010001000100010036
:1002C0000000010001000100010001000000000029
:1002D000000000000000000000000000000000001E
:1002E000000000000000000000000000010001000C
:1002F00001000100010001000100010001000100F6
:1003000001000100010001000100010001000100E5
:1003100001000100010001000100010001000100D5
:1003200001000100010000000100010001000000C7
:1003300001000100010001000100010001000100B5
:1003400001000100010001000100010001000000A6
:100350000100010001000100010001000100010095
:100360000100010001000100000001000000010087
:100370000100010001000100010001000100010075
:100380000100010000000100010001000100010066
:10039000000001000000000001000000000000005B
:1003A0000100010001000100010001000100010045
:1003B0000100010001000100010001000100010035
:1003C0000000010001000100010001000000000028
:1003D000000000000000000000000000000000001D
:1003E000000000000000000000000000010001000B
:1003F00001000100010001000100010001000100F5
:1004000001000100010001000100010001000100E4
:1004100001000100010001000100010001000100D4
:1004200001000100010000000100010001000000C6
:1004300001000100010001000100010001000100B4
:1004400001000100010001000100010001000000A5
:100450000100010001000100010001000100010094
:100460000100010001000100000001000000010086
:100470000100010001000100010001000100010074
:100480000100010000000100010001000100010065
:10049000000001000000000001000000000000005A
:1004A0000100010001000100010001000100010044
:1004B0000100010001000100010001000100010034
:1004C0000000010001000100010001000000000027
:1004D000000000000000000000000000000000001C
:1004E000000000000000000000000000010001000A
:1004F00001000100010001000100010001000100F4
:1005000001000100010001000100010001000100E3
:1005100001000100010001000100010001000100D3
:1005200001000100010000000100010001000000C5
:1005300001000100010001000100010001000100B3
:1005400001000100010001000100010001000000A4
:100550000100010001000100010001000100010093
:100560000100010001000100000001000000010085
:100570000100010001000100010001000100010073
:100580000100010000000100010001000100010064
:100590000000010000000000010000000000000059
:1005A0000100010001000100010001000100010043
:1005B0000100010001000100010001000100010033
:1005C0000000010001000100010001000000000026
:1005D000000000000000000000000000000000001B
:1005E0000000000000000000000000000100010009
:1005F00001000100010001000100010001000100F3
:1006000001000100010001000100010001000100E2
:1006100001000100010001000100010001000100D2
:1006200001000100010000000100010001000000C4
:1006300001000100010001000100010001000100B2
:1006400001000100010001000100010001000000A3
:100650000100010001000100010001000100010092
:100660000100010001000100000001000000010084
:100670000100010001000100010001000100010072
:100680000100010000000100010001000100010063
:100690000000010000000000010000000000000058
:1006A0000100010001000100010001000100010042
:1006B0000100010001000100010001000100010032
:1006C0000000010001000100010001000000000025
:1006D000000000000000000000000000000000001A
:1006E0000000000000000000000000000100010008
:1006F00001000100010001000100010001000100F2
:1007000001000100010001000100010001000100E1
:1007100001000100010001000100010001000100D1
:1007200001000100010000000100010001000000C3
:1007300001000100010001000100010001000100B1
:1007400001000100010001000100010001000000A2
:100750000100010001000100010001000100010091
:100760000100010001000100000001000000010083
:100770000100010001000100010001000100010071
:100780000100010000000100010001000100010062
:100790000000010000000000010000000000000057
:1007A0000100010001000100010001000100010041
:1007B0000100010001000100010001000100010031
:1007C0000000010001000100010001000000000024
:1007D0000000000000000000000000000000000019
:1007E0000000000000000000000000000100010007
:1007F00001000100010001000100010001000100F1
:1008000001000100010001000100010001000100E0
:1008100001000100010001000100010001000100D0
:1008200001000100010000000100010001000000C2
:1008300001000100010001000100010001000100B0
:1008400001000100010001000100010001000000A1
:100850000100010001000100010001000100010090
:100860000100010001000100000001000000010082
:100870000100010001000100010001000100010070
:100880000100010000000100010001000100010061
:100890000000010000000000010000000000000056
:1008A0000100010001000100010001000100010040
:1008B0000100010001000100010001000100010030
:1008C0000000010001000100010001000000000023
:1008D0000000000000000000000000000000000018
:1008E0000000000000000000000000000100010006
:1008F00001000100010001000100010001000100F0
:1009000001000100010001000100010001000100DF
:1009100001000100010001000100010001000100CF
:1009200001000100010000000100010001000000C1
:1009300001000100010001000100010001000100AF
:1009400001000100010001000100010001000000A0
:10095000010001000100010001000100010001008F
:100960000100010001000100000001000000010081
:10097000010001000100010001000100010001006F
:100980000100010000000100010001000100010060
:100990000000010000000000010000000000000055
:1009A000010001000100010001000100010001003F
:1009B000010001000100010001000100010001002F
:1009C0000000010001000100010001000000000022
:1009D0000000000000000000000000000000000017
:1009E0000000000000000000000000000100010005
:1009F00001000100010001000100010001000100EF
:100A000001000100010001000100010001000100DE
:100A100001000100010001000100010001000100CE
:100A200001000100010000000100010001000000C0
:100A300001000100010001000100010001000100AE
:100A4000010001000100010001000100010000009F
:100A5000010001000100010001000100010001008E
:100A60000100010001000100000001000000010080
:100A7000010001000100010001000100010001006E
:100A8000010001000000010001000100010001005F
:100A90000000010000000000010000000000000054
:100AA000010001000100010001000100010001003E
:100AB000010001000100010001000100010001002E
:100AC0000000010001000100010001000000000021
:100AD0000000000000000000000000000000000016
:100AE0000000000000000000000000000100010004
:100AF00001000100010001000100010001000100EE
:100B000001000100010001000100010001000100DD
:100B100001000100010001000100010001000100CD
:100B200001000100010000000100010001000000BF
:100B300001000100010001000100010001000100AD
:100B4000010001000100010001000100010000009E
:100B5000010001000100010001000100010001008D
:100B6000010001000100010000000100000001007F
:100B7000010001000100010001000100010001006D
:100B8000010001000000010001000100010001005E
:100B90000000010000000000010000000000000053
:100BA000010001000100010001000100010001003D
:100BB000010001000100010001000100010001002D
:100BC0000000010001000100010001000000000020
:100BD0000000000000000000000000000000000015
:100BE0000000000000000000000000000100010003
:100BF00001000100010001000100010001000100ED
:100C000001000100010001000100010001000100DC
:100C100001000100010001000100010001000100CC
:100C200001000100010000000100010001000000BE
:100C300001000100010001000100010001000100AC
:100C4000010001000100010001000100010000009D
:100C5000010001000100010001000100010001008C
:100C6000010001000100010000000100000001007E
:100C7000010001000100010001000100010001006C
:100C8000010001000000010001000100010001005D
:100C90000000010000000000010000000000000052
:100CA000010001000100010001000100010001003C
:100CB000010001000100010001000100010001002C
:100CC000000001000100010001000100000000001F
:100CD0000000000000000000000000000000000014
:100CE0000000000000000000000000000100010002
:100CF00001000100010001000100010001000100EC
:100D000001000100010001000100010001000100DB
:100D100001000100010001000100010001000100CB
:100D200001000100010000000100010001000000BD
:100D300001000100010001000100010001000100AB
:100D4000010001000100010001000100010000009C
:100D5000010001000100010001000100010001008B
:100D6000010001000100010000000100000001007D
:100D7000010001000100010001000100010001006B
:100D8000010001000000010001000100010001005C
:100D90000000010000000000010000000000000051
:100DA000010001000100010001000100010001003B
:100DB000010001000100010001000100010001002B
:100DC000000001000100010001000100000000001E
:100DD0000000000000000000000000000000000013
:100DE0000000000000000000000000000100010001
:100DF00001000100010001000100010001000100EB
:100E000001000100010001000100010001000100DA
:100E100001000100010001000100010001000100CA
:100E200001000100010000000100010001000000BC
:100E300001000100010001000100010001000100AA
:100E4000010001000100010001000100010000009B
:100E5000010001000100010001000100010001008A
:100E6000010001000100010000000100000001007C
:100E7000010001000100010001000100010001006A
:100E8000010001000000010001000100010001005B
:100E90000000010000000000010000000000000050
:100EA000010001000100010001000100010001003A
:100EB000010001000100010001000100010001002A
:100EC000000001000100010001000100000000001D
:100ED0000000000000000000000000000000000012
:100EE0000000000000000000000000000100010000
:100EF00001000100010001000100010001000100EA
:100F000001000100010001000100010001000100D9
:100F100001000100010001000100010001000100C9
:100F200001000100010000000100010001000000BB
:100F300001000100010001000100010001000100A9
:100F4000010001000100010001000100010000009A
:100F50000100010001000100010001000100010089
:100F6000010001000100010000000100000001007B
:100F70000100010001000100010001000100010069
:100F8000010001000000010001000100010001005A
:100F9000000001000000000001000000000000004F
:100FA0000100010001000100010001000100010039
:100FB0000100010001000100010001000100010029
:100FC000000001000100010001000100000000001C
:100FD0000000000000000000000000000000000011
:100FE00000000000000000000000000001000100FF
:100FF00001000100010001000100010001000100E9
:1010000001000100010001000100010001000100D8
:1010100001000100010001000100010001000100C8
:1010200001000100010000000100010001000000BA
:1010300001000100010001000100010001000100A8
:101040000100010001000100010001000100000099
:101050000100010001000100010001000100010088
:10106000010001000100010000000100000001007A
:101070000100010001000100010001000100010068
:101080000100010000000100010001000100010059
:10109000000001000000000001000000000000004E
:1010A00001000100010001000100010012036B00BA
:1010B0006500790062006F0061007200640000004A
:1010C000160371006D006B006200750069006C0012
:1010D00064006500720000000403090409026D0049
:1010E000040100A0FA090400000103010100092124
:1010F000110100012240000705810308000A0904CC
:1011000001000103010200092111010001224D002B
:101110000705820308000A09040200010300000019
:101120000921110100012236000705830308000A86
:10113000090403000103000000092111010001223C
:10114000390007058403200001120110010000008E
:1011500008EDFE606001000102000105010906A121
:1011600001050719E029E71500250195087501819A
:10117000020508190129059505750191029501756A
:101180000391010507190029F71500250195F87548
:10119000018102C005010980A10185021601002616
:1011A00003001A81002A8300751095018100C00593
:1011B0000C0901A1018503160100269C021A0100F9
:1011C0002A9C02751095018100C005010902A10148
:1011D0000901A10005091901290515002501950539
:1011E00075018102950175038101050109300931FD
:1011F0001581257F95027508810609381581257F9F
:10120000950175088106050C0A38021581257F9520
:101210000175088106C0C005010906A1010507196D
:10122000E029E715002501950875018102950175F2
:101230000881010508190129059505750191029597
:1012400001750391010507190029FF150026FF000C
:10125000950675088100C00011241FBECFEFDAE0AB
:10126000DEBFCDBF04B603FE27C0809182029091FD
:101270008302A0918402B09185028730904BA740F1
:10128000B04BD1F410928202109283021092840229
:101290001092850214BE84B7877F84BF0FB6F8947E
:1012A000A895809160008861809360001092600032
:1012B0000FBEE0E0F8E3099511E0A0E0B1E0E6E15F
:1012C000F0E502C005900D92A034B107D9F722E0F5
:1012D000A0E4B1E001C01D92A238B207E1F70E947C
:1012E00021210C94DD270C94000090E080E008950B
:1012F0000895089581E00895089581E008950C947B
:101300007A090E942C132FEF84E39CE02150804047
:101310009040E1F700C000000C945C1BEF92FF923C
:101320000F931F93CF93DF938C01FC01E080F1803A
:1013300080918C01811140C082818823C1F1C70155
:101340000E94AE18C82F682FC7010E945A18B70113
:101350008C2F0E94C60AEC01B8010E947F098823E5
:1013600009F44BC0B801CE010E94CF0C882309F4C8
:1013700044C0C531F0E7DF0720F5C23080E7D80769
:1013800008F04DC0C115E0E7DE0791F1C130D0474C
:10139000E1F181E08093420180934301C801DF9134
:1013A000CF911F910F91FF90EF900C947D09C70191
:1013B0000E948618C82FCBCFC7010E94AE18B70174
:1013C000C8CFCC3380E7D80709F49BC0CD33D047D2
:1013D00001F7F8018281882309F4BAC01092430111
:1013E0000E94081B909341018093400180E296C0C7
:1013F000F801828181110E94810980E0DF91CF9103
:101400001F910F91FF90EF900895F801828188233A
:10141000A1F380914202816080934202EECFF801F5
:101420008281882309F4BACF0E94691A811102C00F
:101430000E944F1A0E94861A90E090937402809343
:101440007302FE01E350F047809173028160E23144
:10145000F10538F4E152F84D0C948D278091730218
:10146000826080937302809173020E948A1A0E94A4
:101470002C13C3CF809173028460F3CF80917302E9
:101480008860EFCF809173028061EBCF809173020F
:101490008062E7CF809173028064E3CF8091730212
:1014A0008068DFCF809173028C60DBCF8091730204
:1014B0008E7FD7CF809173028D7FD3CF80917302BF
:1014C0008B7FCFCF80917302877FCBCF80917302C8
:1014D0008F7EC7CF809173028F7DC3CF80917302BF
:1014E0008F7BBFCF809173028F77BBCF80917302C8
:1014F000837FB7CF90917302892F97FB87F980582C
:10150000B0CFF8018281882361F0109242010E94DD
:10151000081B909341018093400182E00E9491104A
:101520006CCF8091420181110FC080914001909158
:1015300041010E94141B883C910530F486E20E9410
:10154000660F86E20E94421082E00E94981055CFFA
:101550008091430181110FC0809140019091410120
:101560000E94141B883C910530F487E20E94660FAC
:1015700087E20E94421080E2E8CF0C941E0D0C948A
:10158000200D0C947C090C94C10A089598E0899F61
:10159000F0011124E70FF11D84E0EE0FFF1F8A9583
:1015A000E1F7E60FF11DEE0FFF1FE455FF4F8591A8
:1015B00094910895FC01EE0FFF1FE455FF4E8591B5
:1015C000949108950E94C60A0E94530C9C018115B3
:1015D00040E4940708F097C0211580E3380708F02D
:1015E000FAC0203E310508F074C0203C310508F0F7
:1015F000E5C0283A310588F4253A310508F0E2C003
:101600002130310509F477C0C9010497813A910569
:1016100008F471C030E020E06EC0C901885A910919
:101620004597C0F7283A310509F4FEC0293A31053B
:1016300009F4FDC02A3A310509F4FCC02B3A310502
:1016400009F4FBC02C3A310509F4FAC02B3B3105F3
:1016500009F4F9C02C3B310509F4F8C02D3A3105E5
:1016600009F4F7C0203B310509F4F6C02E3A3105E4
:1016700009F4F5C02F3A310509F4F4C0213B3105D6
:1016800009F4F3C0223B310509F4F2C0233B3105D4
:1016900009F4F1C0243B310509F4F0C0253B3105C4
:1016A00009F4EFC0263B310509F4EEC0273B3105B4
:1016B00009F4EDC0283B310509F4ECC0293B3105A4
:1016C00009F4EBC02A3B310509F4EAC020E034E418
:1016D00012C0211590E2390780F42F3F310509F03F
:1016E00050F4283E310538F0C901805F910930651A
:1016F000409708F08FCFC9010895C9019F700E94DB
:10170000DA0A9C01F8CF8115944508F041C02115F3
:1017100083E5380708F06AC0211592E5390738F5E6
:10172000211541E5340708F05CC0211580E5380734
:1017300008F454C0C90134E0969587953A95E1F7CD
:101740008370422F46954695437090E2499FA001D1
:101750001124582B822F837021E030E002C0220F29
:10176000331F8A95E2F7242B352B3C68C4CFC9017F
:101770008370992741E050E002C0440F551F8A95BD
:10178000E2F72695269580E2289F90011124EBCF61
:10179000211596E5390748F4922F882721153545FC
:1017A000C8F59C01246F306AA6CFC90190563F70DE
:1017B0008115904108F02ECF30629DCFC901805C29
:1017C00091099DCF253A310549F1263A310549F570
:1017D00022E830E490CF3327306C8DCF3F70306AF1
:1017E0008ACF322F2227216F306A85CFC9018370BB
:1017F000992741E050E002C0440F551F8A95E2F757
:101800002695269580E2289F90011124242B352BC4
:101810003A6871CF88279F719C01CECF21E830E4D0
:101820006ACF23E830E467CF22EE34E464CF29EEB8
:1018300034E461CF2AEE34E45ECF25EB34E45BCFB1
:1018400026EB34E458CF23EB34E455CF24EB34E4D7
:1018500052CF27EB34E44FCF2CEC34E44CCF2DECBB
:1018600034E449CF23E835E446CF2AE835E443CFD2
:1018700022E935E440CF24E935E43DCF21E236E4E6
:101880003ACF23E236E437CF24E236E434CF25E200
:1018900036E431CF26E236E42ECF27E236E42BCFF2
:1018A0002AE236E428CF803E910581F1C8F48133E5
:1018B000910509F462C048F48932910509F456C0D3
:1018C0008A32910509F460C0089589339105B9F011
:1018D00082389105A1F08533910509F440C008953F
:1018E000863E910561F138F4823E9105B1F0833E68
:1018F0009105E1F00895873E910551F108952091F9
:1019000073022370D9F080EE90E008952091730265
:1019100020FF14C089E390E008952091730222FF14
:101920000DC024FD09C083EE90E00895209173025C
:1019300022FD31C024FF02C090E080E00895209194
:10194000730223FFFBCF24FDF7CF87EE90E00895CD
:101950002091730223FFEECF86EE90E00895209150
:10196000730225FFEBCF89E290E008952091730286
:1019700025FFE4CF85E390E008952091730226FFD0
:10198000DDCF8AE290E008952091730226FFD6CF42
:1019900081E390E0089582EE90E0089508950F931A
:1019A0001F93CF938C01FB018281811106C0C1E09E
:1019B0008C2FCF911F910F910895C0915101C111AA
:1019C00025C00531104799F70E94CE0C81E0809325
:1019D00051010E94081B9093500180934F01109277
:1019E0004401109246011092450110924801109254
:1019F000470110924A011092490110924C01109235
:101A00004B0110924E0110924D01D2CF80914F01A7
:101A1000909150010E94141B883C910540F68091E2
:101A20004401E82FF0E0EE0FFF1FEB5BFE4F118348
:101A300000838F5F80934401C0E0BACF0C94780993
:101A40000C94790985B7806885BF85B7806885BFA4
:101A5000A3E2B1E061E070E08D91E82FE295EF70D4
:101A6000F0E041A18F709B0101C0220F8A95EAF737
:101A7000922F9095942391A382A1822B82A381E03F
:101A8000AB32B80749F7A3E1B1E061E070E08D91B6
:101A9000E82FE295EF70F0E041A18F709B0101C04B
:101AA000220F8A95EAF7922F9095942391A382A111
:101AB000822B82A381E0A332B80749F7E2E6F1E086
:101AC000A2E5B1E082E791E0119211921D921D9280
:101AD0008E179F07C9F70C94BD0A2F923F924F9221
:101AE0005F926F927F928F929F92AF92BF92CF92AE
:101AF000DF92EF92FF920F931F93CF93DF9302E554
:101B000011E083E2C82E81E0D82E1801EE24E39480
:101B1000F12C66246394D1018D909D901D011E923D
:101B20001E92E60189916E01E82FE295EF70F0E0D8
:101B300091A18F70970101C0220F8A95EAF7892F32
:101B4000822B81A382A1722E7094872182A3D0EA76
:101B5000DA95F1F763E171E090E080E0EB015990F4
:101B6000BE01452D42954F7050E0EA0148A0AD906E
:101B7000BC901197552D5F70E70102C0CC0FDD1F9F
:101B80005A95E2F7AE01442109F059C0A701082E89
:101B900002C0440F551F0A94E2F74A295B291196A7
:101BA0005C934E93019680319105C1F681A1782214
:101BB00071A282A1282B22A38D919C91881699064F
:101BC00041F0609272010E94081B9093740180930F
:101BD0007301D2E62D16D1E03D0609F09CCF80912D
:101BE00072018823B1F080917301909174010E9479
:101BF000141B069770F0E2E6F1E0D8018D919D91FB
:101C00008D0181939193B1E002361B07B1F71092D9
:101C100072010E94BF0A81E0DF91CF911F910F9165
:101C2000FF90EF90DF90CF90BF90AF909F908F90FC
:101C30007F906F905F904F903F902F90089550E06D
:101C400040E0ABCFE82FF0E0EE0FFF1FEE59FE4F64
:101C5000808191810895089590937A01809379010C
:101C60000895E0917901F0917A01309721F0019087
:101C7000F081E02D099480E00895E0917901F091E0
:101C80007A01309721F00280F381E02D09940895C4
:101C9000E0917901F0917A01309721F00480F5818B
:101CA000E02D09940895209177013091780128174B
:101CB000390771F09093780180937701E091790171
:101CC000F0917A01309721F00680F781E02D099498
:101CD000089520917501309176012817390771F028
:101CE0009093760180937501E0917901F0917A01EA
:101CF000309721F00084F185E02D0994089508952E
:101D00000C947F0E0E94FF1A0E94220D0C94C91B96
:101D10005F926F927F928F929F92AF92BF92CF927B
:101D2000DF92EF92FF920F931F93CF93DF9300D038
:101D300000D00F92CDB7DEB70E946D0D9CE7A92EA3
:101D400091E0B92E10E000E088248394912C502E6D
:101D5000802F0E94220E7C01F501C190D1905F017D
:101D6000C816D90609F45DC08091420281FD0E9427
:101D70002B0E90E080E0CE24DF243401082E02C038
:101D8000660C771C0A94E2F7960126213721232B53
:101D900009F442C089835A82E620F72081E0EF28C7
:101DA00009F480E08B830E94081B8160782F9D835B
:101DB0008C8349815A816B818D810E943D0F000F78
:101DC000111FF801E458FE4F808191816826792621
:101DD000718260820E94761E0E94310E90917B017A
:101DE0008917B1F10E94310E80937B010F900F9003
:101DF0000F900F900F90DF91CF911F910F91FF9057
:101E0000EF90DF90CF90BF90AF909F908F907F909A
:101E10006F905F900C94C30A01968031910509F090
:101E2000ACCF0F5F1F4F0830110509F090CF8FEF37
:101E300089838A831B820E94081B8160782F9D837F
:101E40008C8349815A816B818D810E943D0FC2CF65
:101E50000F900F900F900F900F90DF91CF911F91E7
:101E60000F91FF90EF90DF90CF90BF90AF909F9039
:101E70008F907F906F905F900895CF93DF93CDB751
:101E8000DEB72B970FB6F894DEBF0FBECDBF4F83E2
:101E9000588769877A878B871E8285E0FE0137968F
:101EA000DE01119601900D928A95E1F749815A81E0
:101EB0006B817C818D819E812B960FB6F894DEBF5D
:101EC0000FBECDBFDF91CF910C94B415882309F4D8
:101ED000D8C0823871F40E94310E81FDD2C089E3EE
:101EE0000E9456190E94201A89E30E9493190C94AB
:101EF000201A833859F40E94310E80FDC2C083E558
:101F00000E9456190E94201A83E5EFCF843859F4B5
:101F10000E94310E82FDB5C087E40E9456190E94CE
:101F2000201A87E4E2CF9CEF980F913A18F40E94B0
:101F30005619DDCF90E2980F983050F4877091E0F9
:101F400001C0990F8A95EAF7892F0E94D719CFCF40
:101F50009BE5980F933070F4853A31F0863A39F06A
:101F600083E890E00C94530E81E890E0FBCF82E888
:101F700090E0F8CF98E5980F953108F082C0883A44
:101F800009F440C0893A09F440C08A3A09F440C0D3
:101F90008B3A09F440C08C3A09F440C08B3B09F4F9
:101FA00040C08C3B09F440C08D3A09F440C0803BEE
:101FB00009F440C08E3A09F440C08F3A09F440C099
:101FC000813B09F440C0823B09F440C0833B09F4E3
:101FD00040C0843B09F440C0853B09F440C0863BC7
:101FE00009F440C0873B09F440C0883B09F440C075
:101FF000893B09F440C08A3B09F440C090E080E08E
:102000000C94690E82EE90E0FBCF89EE90E0F8CF61
:102010008AEE90E0F5CF85EB90E0F2CF86EB90E092
:10202000EFCF83EB90E0ECCF84EB90E0E9CF87EB50
:1020300090E0E6CF8CEC90E0E3CF8DEC90E0E0CF49
:1020400083E891E0DDCF8AE891E0DACF82E991E0A0
:10205000D7CF84E991E0D4CF81E292E0D1CF83E27F
:1020600092E0CECF84E292E0CBCF85E292E0C8CF7F
:1020700086E292E0C5CF87E292E0C2CF8AE292E0A8
:10208000BFCF0895882309F44BC0823871F40E94B1
:10209000310E81FF45C089E30E9456190E94201A23
:1020A00089E30E9493190C94201A833859F40E94F2
:1020B000310E80FF35C083E50E9456190E94201A18
:1020C00083E5EFCF843859F40E94310E82FF28C097
:1020D00087E40E9456190E94201A87E4E2CF9CEF01
:1020E000980F913AF0F290E2980F983050F4877080
:1020F00091E001C0990F8A95EAF7892F0E94DD19B6
:10210000D2CF9BE5980F933020F490E080E00C94C0
:10211000530E885A853120F490E080E00C94690ECB
:102120000895882321F00E94D7190C94201A08954D
:10213000882321F00E94DD190C94201A08958F92B3
:102140009F92AF92BF92DF92EF92FF920F931F93F5
:10215000CF93DF9300D000D00F92CDB7DEB77C01D4
:102160006D837983FC01058102950F701281111135
:102170000E94F6190E944F19D82E882371F011235E
:10218000A1F08D81805E883080F082E00E94391954
:102190000E944F1991E0D82ED926E981E295EF707F
:1021A000F0E0EF50F84D0C948D27D12CF6CF09813B
:1021B0000F70F981F07F11F00295007F1123B1F0CB
:1021C000002361F08D81805E883018F02D8121110F
:1021D00009C0802F0E94D7190E94201A8D810E9469
:1021E000660F15C0802F0E94E819F6CF8D810E94DE
:1021F0004210002361F08D81805E883018F03D81AF
:10220000311129C0802F0E94DD190E94201ADD2083
:1022100009F4D3C10E942C1980FDCFC1F7011282AD
:102220000E9426190E947217C7010E94EE120E9496
:1022300026190F900F900F900F900F90DF91CF9174
:102240001F910F91FF90EF90DF90BF90AF909F9004
:102250008F900C949417802F0E94EE19D6CF49814D
:102260004F70B42E5981507F503219F0B29480EFE4
:10227000B8228D81882369F0813029F1112369F119
:10228000002359F0F701858180FFA8CF8F708583E7
:1022900004C0112361F0011104C08B2D0E94911024
:1022A000B6CF8B2D0130D1F70E940A1AB0CF0111A1
:1022B00006C00E940D1A8B2D0E949810A8CF0130E5
:1022C00009F4A5CFF6CF112321F0063008F09FCFF7
:1022D000E4CF053008F09BCFEECF002361F38D8172
:1022E0000E94421094CF898186958695837069F00B
:1022F000813009F08CCF8D8199819370111102C0CA
:1023000090E080E00E94690E82CF8D819981937068
:10231000111102C090E080E00E94530E78CF8D81B1
:10232000112329F00E94841D0E946B1E70CF0E9411
:10233000EC1DFACF8981837009F05FC0111167CF5E
:102340002D81229526952770220F220F8D818F7067
:1023500090E0B0E0A0E04C015D01022E04C0880CCA
:10236000991CAA1CBB1C0A94D2F7FD8160E070E0A6
:10237000CB01F4FF0FC06FE070E080E090E004C09C
:10238000660F771F881F991F2A95D2F76095709561
:102390008095909529812695269523702D8322304E
:1023A000B1F0233019F19B01AC01282939294A29C0
:1023B0005B2929833A834B835C833D8169817A81E0
:1023C0008B819C813130B1F00E94FF1620CF9B01A0
:1023D000AC01282939294A295B2929833A834B836F
:1023E0005C83CA01B9010E94291711CF0E94FF1610
:1023F000C501B4010E94D5160ACF8695112311F0AC
:1024000089818170882309F402CF2D812295269538
:102410002770220F220F8D818F7090E0B0E0A0E036
:102420004C015D01022E04C0880C991CAA1CBB1C27
:102430000A94D2F73D8160E070E0CB0134FF0FC019
:102440006FE070E080E090E004C0660F771F881FA7
:10245000991F2A95D2F7609570958095909549813E
:102460004695469543704D834230B1F0433019F1A3
:102470009B01AC01282939294A295B2929833A8300
:102480004B835C833D8169817A818B819C81313072
:10249000B1F00E940518BBCE9B01AC012829392957
:1024A0004A295B2929833A834B835C83CA01B9019A
:1024B0000E942F18ACCE0E940518C501B4010E94DD
:1024C000DB17A5CE3D81323F09F447C080F4303F91
:1024D00079F1313FD9F1832F805E8031D0F0112323
:1024E00009F456C001117ACE89818F7133C04D81B4
:1024F000433FD1F1443F99F7112309F43FC089814B
:102500008F7189830E94721763E089810E9430195C
:102510007ECE5D815F705D8389818F71112321F093
:102520000E9472178D81BACE0E9494178D81C4CEFD
:10253000112341F0053008F06ACE89818F710E9425
:10254000B91765CE063008F062CEF7CF89818F715A
:10255000112339F00E9472175ACE89818F7111238D
:10256000C9F30E94941753CE112329F089818F71EA
:102570000E945D174CCE0E94531749CE81E00E9405
:102580003919023008F443CE82E00E9439193FCE57
:102590000111A5CE89818F71E4CF49814F706D8182
:1025A000C7010E9475090E944E1631CE49814F70B5
:1025B0006D81C7010E94C50A2ACE0F900F900F901F
:1025C0000F900F90DF91CF911F910F91FF90EF909F
:1025D000DF90BF90AF909F908F9008950F931F93BF
:1025E000CF93DF93EC018B819C81892B29F088812B
:1025F000998189238F3F29F4DF91CF911F910F910A
:102600000895CE010E948E098823B1F368817981F3
:102610008A810E94FC188C010E9459180E94CA16D7
:10262000B801CE01DF91CF911F910F910C949F10B3
:102630000E94F6190E94071A0E94C9190E94201AC6
:102640000E945C1F0E946B1E90E080E00E94530E6F
:1026500090E080E00C94690E0E94E5190C94181328
:102660000E94F018282F892F82958F70903C80F45B
:102670008A30B0F4843020F4823090F480E0089501
:102680008630E1F781E0203E88F0213FB9F70EC0A7
:102690008C3011F08F3091F793FB882780F90895E3
:1026A00081E0203F39F018F4203E40F70895243FA0
:1026B00029F7FCCF0895CF93DF9300D000D00F927D
:1026C000CDB7DEB70F900F900F900F900F90DF9166
:1026D000CF910895CF93DF9300D000D000D0CDB735
:1026E000DEB726960FB6F894DEBF0FBECDBFDF91E2
:1026F000CF9108951F93CF93DF93E0918D0116E062
:1027000080918E018E1304C0DF91CF911F910895A7
:10271000CE2FD0E01E9FF0011124E157FE4F4081E3
:10272000518162817381848195810E946A13FE01C7
:102730003196E770E5CF4091BF015091C0016091A3
:10274000C1017091C2018091C3019091C4010C94A8
:102750006A131F93CF93DF938091C401807FC1F4EC
:102760008091C1018823A1F080918D01C0918E01DB
:102770006091BF017091C0014091C2015091C301AD
:10278000D62FD723DA01A095B09516E0C81304C060
:10279000DF91CF911F91089590E04115510511F0FF
:1027A000DF3F31F401968770F1CF2A0F3B1F17C02E
:1027B000189FF001199FF00D1124E157FE4F218160
:1027C0002713F0CF20812613EDCF22812111EACFEC
:1027D000238134812417350740F3241B350B283C13
:1027E000310500F72091C4012F7020612093C401AE
:1027F00026E0289FF001299FF00D1124EC56FE4F92
:1028000080818F70806180838FEB91E00E94EE1257
:10281000DF91CF911F910C947A139F92AF92BF9248
:10282000CF92DF92EF92FF920F931F93CF93DF939C
:10283000CDB7DEB72B970FB6F894DEBF0FBECDBF76
:102840008C0185E0F801DE01179601900D928A95C2
:10285000E1F7D8014C9111965C9111971296EC908A
:1028600012978091C2019091C301009709F46BC146
:102870002091BF013091C001632F62236F3F09F4A3
:1028800062C11396CD90DC909090C101992009F41B
:10289000F8C0C816D90608F43FC0F601E81BF90BCA
:1028A000CF01FF24F394883C910508F0F12C8FEBC5
:1028B000A82E81E0B82E8091C401982F907FFF2030
:1028C00009F4B7C0911180C0FE2C35132AC024131F
:1028D00028C0E11026C08F7080618093C4010E94DF
:1028E0009B13C5010E94EE128091C401D801159678
:1028F0008C938F2D2B960FB6F894DEBF0FBECDBFF5
:10290000DF91CF911F910F91FF90EF90DF90CF90CB
:10291000BF90AF909F900895809590958C0D9D1DD0
:10292000C0CFCD2829F0842F85238F3F09F019C10E
:1029300080E0B82FB170DB2EE0918D0120918E01E7
:1029400036E080FD1CC0EE20A1F28091C4018160C0
:102950008093C401F12CCDCF8E2F90E03E9FF001EB
:102960001124E157FE4F6181651306C06081641335
:1029700003C062816E11E7CFFC013196E770E2136C
:10298000EBCF4F8358878F8198850E94F018292FAD
:1029900022952F70903260F0225F2F70223078F4F1
:1029A0009F7051F0F8019581907F31F4D12C0AC0CD
:1029B0009F7011F08823D1F3805E8830B8F3C8018E
:1029C0000E94EE12FD2C95CF351306C0241304C0CF
:1029D000D801EE2009F47BC04F8358878F819885FA
:1029E0000E943013882309F4B8C0EE2009F4B5C062
:1029F0008091C401803270F02091BF013091C001FC
:102A00003A8329831B82DD82CC828E83CE0101969C
:102A10000E94EE1286E0F801AFEBB1E001900D925A
:102A20008A95E1F70E94A9130E949B13FF24F39457
:102A300060CF911113C07C2DDB86CA866E2D8B85ED
:102A40000E945B138FEB91E00E94EE1286E0F5018D
:102A500011928A95E9F70E949B134BCF3513BCCF97
:102A60002413BACFE110B8CFD80115968C93C801C2
:102A70000E94EE1286E0F50111928A95E9F7F92C91
:102A800038CFC816D90688F1B601681B790BCB017F
:102A9000F12C883C910508F047C0FE2CEE2009F48B
:102AA0005CC0351330C024132EC08091C40180FD5A
:102AB00021C0982F907FF1F0D80115968C9315972F
:102AC000903F39F0982F907F905F8F70892B1596EB
:102AD0008C93C8010E94EE1286E0F801AFEBB1E0E2
:102AE00001900D928A95E1F7B6CF809590958C0D67
:102AF0009D1DCECF86E0F801AFEBB1E001900D92C5
:102B00008A95E1F7F6CE4F8358878F8198850E948A
:102B1000301381117FCF8091C40181608093C40103
:102B2000C8010E94EE12E5CE7C2DDB86CA866E2D92
:102B30008B850E945B1386E0EFEBF1E0DF011D92D5
:102B40008A95E9F788CFEE2041F04F8358878F812F
:102B500098850E94301381115DCFC8010E94EE124A
:102B600065CF81E08E25E5CE1F93CF93DF93CDB760
:102B7000DEB72C970FB6F894DEBF0FBECDBF4F83E4
:102B8000588769877A878B879C87CE0107960E9432
:102B90000D14882369F08A859B85892B39F04F8134
:102BA0005885842F85238F3F09F071C016E05FC0E0
:102BB00086E0FE013796DE01119601900D928A950E
:102BC000E1F78A859B85892B89F388859F818923F5
:102BD0008F3F61F320918E0130E0C901019687702B
:102BE000992740918D014817190671F40E942C1302
:102BF00010928E0110928D0186E0EFEBF1E0DF0183
:102C00001D928A95E9F7D2CF96E0929FD001939FCB
:102C1000B00D1124A157BE4FFE01319601900D92C7
:102C20009A95E1F780938E010E947A13BFCF819F1E
:102C3000C001112481579E4F0E940D148823E9F092
:102C4000E0918D011E9FF0011124E157FE4F40815C
:102C5000518162817381848195810E946A13809180
:102C60008D0190E001968770992780938D01809166
:102C70008D0190918E018913DACF2C960FB6F894BE
:102C8000DEBF0FBECDBFDF91CF911F910895698543
:102C90007A858B859C850E946A1388CFEF92FF927C
:102CA0000F931F93CF93DF938C01892B89F0F12C25
:102CB000EE24E394E8012196F8018491843709F425
:102CC00057C0A0F4823009F43EC048F48130D1F0FE
:102CD000DF91CF911F910F91FF90EF9008959CEF9E
:102CE000980F9037A8F70E94660F0AC0853709F43D
:102CF0004CC09CE7980F903758F78F770E9442108E
:102D00008E0116C00E5F1F4FFE01849190E2980F56
:102D1000983060F48770FE2D01C0FF0F8A95EAF7A6
:102D20008F2F0E94F9190E94201A02C00E94660F7C
:102D30008F2D815008F4BECFEFE9FFE03197F1F716
:102D400000C00000F6CF0E5F1F4FFE01849190E29D
:102D5000980F983050F48770FE2D01C0FF0F8A95B0
:102D6000EAF78F2F0E94FF19DECF0E944210E0CFBA
:102D70000E5F1F4FFE01C491C150D0F28FE99FE05A
:102D80000197F1F700C00000F7CF0E5F1F4FFE0163
:102D9000F490CECF08956093190270931A02809335
:102DA0001B0290931C020C941813CF93DF9300D056
:102DB00000D0CDB7DEB769837A838B839C83809103
:102DC000190290911A02A0911B02B0911C02298154
:102DD0003A814B815C81822B932BA42BB52B809362
:102DE000190290931A02A0931B02B0931C020F9039
:102DF0000F900F900F90DF91CF910C941813CF93F9
:102E0000DF9300D000D0CDB7DEB769837A838B83A0
:102E10009C838091190290911A02A0911B02B0919B
:102E20001C0229813A814B815C8182239323A42354
:102E3000B5238093190290931A02A0931B02B093BA
:102E40001C020F900F900F900F90DF91CF910C9478
:102E50001813CF93DF9300D000D0CDB7DEB76983CE
:102E60007A838B839C838091190290911A02A0919E
:102E70001B02B0911C0229813A814B815C8182271F
:102E80009327A427B5278093190290931A02A09341
:102E90001B02B0931C020F900F900F900F90DF91C8
:102EA000CF910C94181310921502109216021092E2
:102EB0001702109218020C94181341E050E060E0E1
:102EC00070E004C0440F551F661F771F8A95D2F724
:102ED00040931502509316026093170270931802E4
:102EE0000C941813282F81E090E0A0E0B0E004C01B
:102EF000880F991FAA1FBB1F2A95D2F74091150270
:102F0000509116026091170270911802842B952B34
:102F1000A62BB72B8093150290931602A09317024D
:102F2000B09318020C94181341E050E060E070E098
:102F300004C0440F551F661F771F8A95D2F740952E
:102F40005095609570958091150290911602A09110
:102F50001702B091180284239523A623B7238093E8
:102F6000150290931602A0931702B09318020C94C6
:102F70001813282F81E090E0A0E0B0E004C0880F93
:102F8000991FAA1FBB1F2A95D2F740911502509195
:102F90001602609117027091180284279527A627C0
:102FA000B7278093150290931602A0931702B0934F
:102FB00018020C941813CF93DF9300D000D0CDB734
:102FC000DEB769837A838B839C838091150290910D
:102FD0001602A0911702B091180229813A814B8103
:102FE0005C81822B932BA42BB52B8093150290939D
:102FF0001602A0931702B09318020F900F900F9033
:103000000F90DF91CF910C941813CF93DF9300D0E2
:1030100000D0CDB7DEB769837A838B839C838091A0
:10302000150290911602A0911702B0911802298101
:103030003A814B815C8182239323A423B52380931F
:10304000150290931602A0931702B09318020F90E6
:103050000F900F900F90DF91CF910C941813CF9396
:10306000DF9300D000D0CDB7DEB769837A838B833E
:103070009C838091150290911602A0911702B09145
:10308000180229813A814B815C8182279327A427EA
:10309000B5278093150290931602A0931702B09360
:1030A00018020F900F900F900F90DF91CF910C941A
:1030B000181308959295907FE92FE80F877041E0EB
:1030C00001C0440F8A95EAF7E695E695E69585E016
:1030D000E89FF0011124EB53FE4F30E020E070E058
:1030E0005191DF011197CB01022E02C09695879571
:1030F0000A94E2F7817081958527842385278C9334
:103100002F5F3F4F2530310559F70895E92FE2959C
:10311000E07FE80F982F9770E695E695E69585E0B5
:10312000E89FF0011124EB53FE4F50E040E080E0B7
:10313000219130E0092E02C0369527950A94E2F7D6
:1031400021703327042E01C0220F0A94EAF7822B44
:103150004F5F5F4F4530510559F70895BF92CF92A9
:10316000DF92EF92FF920F931F93CF93DF938C0127
:10317000C0901502D0901602E0901702F09018024D
:103180008091190290911A02A0911B02B0911C0229
:10319000C82AD92AEA2AFB2ACFE1D0E0BC2ED701DF
:1031A000C6010C2E04C0B695A795979587950A94ED
:1031B000D2F780FD0EC0219788F7B12C8B2DDF91BF
:1031C000CF911F910F91FF90EF90DF90CF90BF9024
:1031D0000895B8018C2F0E94E20A019761F3EECFA7
:1031E000CF93DF93D82FC92F0E94AE186D2F7C2F5D
:1031F000DF91CF910C94E20A1F93CF93DF93162FA8
:10320000D72F90918C01992339F0862F972FDF913A
:10321000CF911F910C94F018882391F0862F972F4F
:103220000E94AE18C82F682F812F9D2F0E945A1818
:10323000612F7D2F8C2FDF91CF911F910C94E20A8B
:10324000862F972F0E948618C82FF2CF80911D02DB
:10325000859585958595089580911D0287700895BF
:1032600098E0899F90011124622B60931D020C94B9
:10327000721790911D028095892380931D02282F3B
:10328000277061F4282F082E000C330B92171306B9
:1032900029F08595859585950C94941708959091BE
:1032A0001D02977081E009F480E008959091120169
:1032B0009923E1F09091730297FF18C0E82FE695EB
:1032C000E695E695EF3139F1209100013091010149
:1032D000E20FF32FF11D877021E030E001C0220FD3
:1032E0008A95EAF78181822B8183089520910001DC
:1032F00030910101F90132969FEF40E0519185171D
:1033000051F09F3F19F4511101C0942F4F5F4E317E
:10331000A9F79F3F09F40895290F311D97FD3A95AC
:10332000F9018283089590911201992301F19091FE
:10333000730297FF1CC0E82FE695E695E695EF31FE
:1033400039F12091000130910101E20FF32FF11DBD
:10335000877021E030E0A90102C0440F551F8A9513
:10336000E2F7CA0180959181892381830895209194
:10337000000130910101F9013296205E3F4F919199
:10338000891303C0DF0111971C92E217F307B9F705
:10339000089581E090E0E0910001F0910101E80FD3
:1033A000F91F1082019680329105A9F70895909136
:1033B0004102982B909341020895982F9095809107
:1033C0004102892380934102089510924102089599
:1033D00090914002982B909340020895982F9095D9
:1033E0008091400289238093400208951092400208
:1033F000089590913F02982B90933F020895982F43
:10340000909580913F02892380933F020895109206
:103410003F02089580931E02089510921E0208959F
:103420002091000130910101F9013196205E3F4F5A
:1034300080E0919191118F5FE217F307D1F7089522
:10344000E0910001F0910101809141028083E091BF
:103450000001F0910101808190914002892B8083CD
:10346000E0910001F0910101808190913F02892B50
:10347000808390911E02992361F0E0910001F09108
:1034800001018081892B80830E94101A8111109282
:103490001E0280910001909101010C943D0E6DEE91
:1034A0007EEF90E080E00E94C72760E082E090E03D
:1034B0000E94B52760E083E090E00E94B52760E0BD
:1034C00084E090E00E94B52760E085E090E00C94F5
:1034D000B52790E080E00E94AF279C0181E02D3E5F
:1034E0003E4F09F080E0089582E090E00C94A72719
:1034F000682F82E090E00C94B52783E090E00C9474
:10350000A727682F83E090E00C94B52784E090E033
:103510000C94A727682F84E090E00C94B527809145
:103520007902843039F11092430288E190E020E47E
:103530000FB6F894A895809360000FBE20936000AA
:1035400080E00E94C30A83B7817F846083BF83B712
:10355000816083BF7894889583B78E7F83BF0FB6D1
:10356000F894A89580916000886180936000109223
:1035700060000FBE089508950895CF930E94BB1A6E
:103580000E946D0D0E94BC1AC0E08C2F0E94220E7A
:10359000892B31F4CF5FC830C1F780E0CF91089517
:1035A00081E0FCCF0E942C130E94310E0C94C30AC0
:1035B0001F921FB61F9211248F939F93AF93BF93B7
:1035C00080914302811113C080916F02909170022B
:1035D000A0917102B09172024196A11DB11D80931C
:1035E0006F0290937002A0937102B0937202BF9128
:1035F000AF919F918F911F901FBE1F90189582E0F1
:1036000084BD93E095BD9AEF97BD80936E000895B9
:103610002FB7F89480916F0290917002A09171027F
:10362000B09172022FBF0895CF92DF92EF92FF9276
:103630009C014FB7F89480916F0290917002A09115
:103640007102B09172024FBF6C017D01EE24FF2424
:10365000A90170E060E0C416D506E606F70638F06A
:10366000821B930BFF90EF90DF90CF90089501970E
:10367000F7CF1F921FB61F9211248F939F93AF9382
:10368000BF9380916F0290917002A0917102B091EE
:1036900072020196A11DB11D80936F02909370027A
:1036A000A0937102B0937202BF91AF919F918F91DD
:1036B0001F901FBE1F9018950E945023F8942FEF63
:1036C00087EA91E6215080409040E1F700C0000079
:1036D00087E090EBDC018093820290938302A093B9
:1036E0008402B093850288E19CE00FB6F894A89517
:1036F000809360000FBE90936000FFCFAF92BF92A7
:10370000CF92DF92EF92FF920F931F93CF93C0E07F
:10371000AA24A394B12CE82EF12C8C2F0E94220E07
:103720006C0110E000E0C501002E02C0880F991F57
:103730000A94E2F78C219D21892B99F0602F7C2F30
:1037400080E00E94C60AE816F90659F481E0CF919C
:103750001F910F91FF90EF90DF90CF90BF90AF90AF
:1037600008950F5F1F4F00311105E9F6CF5FC83094
:10377000A1F680E0ECCFCF93C82F8CE20E947E1B95
:10378000882321F08C2FCF910C947E1B80E0CF9169
:103790000895CF93DF9300D000D0CDB7DEB70E945D
:1037A000691A811102C00E944F1A95E6998308C0D8
:1037B0000E946D0D8FE39CE90197F1F700C00000B6
:1037C000A981A150A983A111F3CF89E20E94BB1B5B
:1037D000811110C18AE20E94BB1B81110E944F1A05
:1037E00085E00E94BB1B81110E945C1B0E94741A21
:1037F0008093420287E00E94BB1B882371F08BE11B
:103800000E94BB1B882309F4D1C090914202892FEA
:103810008D7F91FF826080934202809142020E94DC
:10382000781A0E94861A90E0909374028093730233
:1038300080EE0E94BB1B882341F090917302892F78
:103840008E7F90FF81608093730289E30E94BB1B8F
:10385000882341F090917302892F8D7F91FF8260C0
:103860008093730282EE0E94BB1B882341F09091EB
:103870007302892F8B7F92FF84608093730286EEA0
:103880000E94BB1B882341F090917302892F877F90
:1038900093FF88608093730283EE0E94BB1B882392
:1038A00041F090917302892F8F7E94FF8061809305
:1038B000730285E30E94BB1B882341F09091730241
:1038C000892F8F7D95FF80628093730281E30E9430
:1038D000BB1B882341F090917302892F8F7B96FF49
:1038E00080648093730281E10E94BB1B882341F0B6
:1038F00090917302892F97FB87F980588093730208
:10390000809173020E948A1A87E20E94BB1B8983FE
:103910008EE10E94BB1B882319F0B981B260B98384
:103920008FE10E94BB1B882319F029812460298321
:1039300080E20E94BB1B882319F0398138603983EB
:1039400081E20E94BB1B882319F0498140614983B1
:1039500082E20E94BB1B882319F05981506259836F
:1039600083E20E94BB1B882319F0898180648983CC
:1039700084E20E94BB1B8823B1F1998190689983EE
:1039800089810E94811A3981232F30E050E040E084
:1039900029833A834B835C83CA01B9010F900F904E
:1039A0000F900F90DF91CF910C94CB168EE00E9478
:1039B000BB1B882339F090914202892F8B7F92FFA5
:1039C000846029CF80E10E94BB1B90914202882332
:1039D00029F0892F877F93FF88601DCF892F8E7FE5
:1039E00090FF816018CFA981A111CACF0E947D1AD2
:1039F000282FCBCF0F900F900F900F90DF91CF918A
:103A000008958091460280FF12C06091050185E013
:103A1000689FB00111247595679575956795603815
:103A20007105A8F561157105A1F1862F089581FF33
:103A300009C06091050185E0689FB001112475956A
:103A40006795EDCF6091050182FD0AC08091470224
:103A50008823D1F09091040160910501891728F025
:103A600085E0689FB0011124DACF869FB001112450
:103A700085E0869F9001879F300D1124692F70E0AB
:103A8000C9010E947927CBCF65E070E0CECF8FE7E8
:103A9000089581E008958091460280FF0CC06091F6
:103AA000030170E0759567957595679561157105CA
:103AB00049F1862F089581FF06C06091030170E0EF
:103AC00075956795F3CF6091030182FD0BC09091CE
:103AD00047029923A1F0609102018091030196179A
:103AE00038F0682F70E06038710500F38FE70895B3
:103AF000899FC001112470E00E947927F4CF61E012
:103B000070E0D7CF81E00895803F31F40E94011D1D
:103B1000819580934A020895813F19F40E94011D06
:103B2000F8CF823F31F40E94011D819580934902B4
:103B30000895833F19F40E94011DF8CF893F29F4AD
:103B40000E944B1D80934B0208958A3F21F40E94EE
:103B50004B1D8195F7CF8B3F31F40E944B1D819512
:103B600080934C0208958C3F19F40E944B1DF8CFAE
:103B7000843F31F480914802816080934802089527
:103B8000853F21F4809148028260F7CF863F21F47F
:103B9000809148028460F1CF873F21F480914802F0
:103BA0008860EBCF883F21F4809148028061E5CFA7
:103BB0008D3F31F4809146028160809346020895E2
:103BC0008E3F21F4809146028260F7CF8F3FB9F794
:103BD000809146028460F1CF90914902803F41F488
:103BE00080914A0287FD10924A02992371F008954C
:103BF000813F29F480914A021816ACF3F6CF823F38
:103C000081F497FFF2CF1092490280914A0290917D
:103C10004B02892B90914C02892B49F71092470255
:103C20000895833F19F4191674F3DFCF893F39F4EF
:103C300080914B021816CCF610924B02D6CF8A3FD9
:103C400029F480914B0287FFD0CFF6CF8B3F39F418
:103C500080914C0287FFC9CF10924C02C6CF8C3F97
:103C600029F480914C021816BCF3BFCF843F31F485
:103C7000809148028E7F80934802B7CF853F21F420
:103C8000809148028D7FF7CF863F21F480914802D2
:103C90008B7FF1CF873F21F480914802877FEBCF64
:103CA000883F21F4809148028F7EE5CF8D3F31F42B
:103CB000809146028E7F8093460297CF8E3F21F4FB
:103CC000809146028D7FF7CF8F3F09F08ECF809194
:103CD00046028B7FF0CF88E492E00E94480E0E945B
:103CE000081B909345028093440208951F93CF933D
:103CF000DF9300D000D000D0CDB7DEB78091440272
:103D0000909145020E94141BAC01809147022091C2
:103D1000060130E0811106C0209107019AE0299F39
:103D2000900111244217530788F020914902A09175
:103D30004A02A98310914B02B0914C02BE8321111B
:103D40000FC09A2F912B9B2B09F0B2C026960FB66D
:103D5000F894DEBF0FBECDBFDF91CF911F910895C4
:103D60008F3F19F08F5F80934702121624F40E9450
:103D7000011D809349028091490287FF05C00E947E
:103D8000011D8195809349022981121624F40E9415
:103D9000011D80934A0280914A0287FF05C00E945C
:103DA000011D819580934A0280914902882309F47C
:103DB00055C030914A023D83332309F44FC0282F68
:103DC000880F330B440B550B29833A834B835C8359
:103DD000CA01B9010E94802623E333E343E35FE392
:103DE00069837A838B839C8369817A818B819C81AF
:103DF0000E94E42669837A838B839C8369817A811C
:103E00008B819C810E944826609349028D81082EF7
:103E1000000C990BAA0BBB0B89839A83AB83BC83E1
:103E2000BC01CD010E94802623E333E343E35FE33B
:103E300069837A838B839C8369817A818B819C815E
:103E40000E94E42669837A838B839C8369817A81CB
:103E50008B819C810E94482660934A02111624F4AB
:103E60000E944B1D80934B0280914B0287FF05C03F
:103E70000E944B1D819580934B029E81191624F45C
:103E80000E944B1D80934C0280914C0287FF05C01D
:103E90000E944B1D819580934C0226960FB6F89494
:103EA000DEBF0FBECDBFDF91CF911F910C946B1E73
:103EB0008F3F09F057CF68CF85E0E8E4F2E0DF01FB
:103EC0001D928A95E9F710924702109246020895D2
:103ED00080916D020895CF93DF9300D00F92CDB7FC
:103EE000DEB720917902243019F523E029838A83F3
:103EF0009B832093E9008FEF9091E800815095FD1E
:103F000006C095ED9A95F1F700008111F5CF8091EB
:103F1000E80085FF0DC050E040E063E070E0CE01B6
:103F200001960E94C8218091E8008E778093E80076
:103F30000F900F900F90DF91CF910895CF93DF9363
:103F400000D00F92CDB7DEB79C018091790284300A
:103F500031F582E08983205831093B832A8383E04D
:103F60008093E9008FEF9091E800815095FD06C0A5
:103F700095ED9A95F1F700008111F5CF8091E80059
:103F800085FF0DC050E040E063E070E0CE01019697
:103F90000E94C8218091E8008E778093E8000F90FE
:103FA0000F900F90DF91CF910895209179022430E6
:103FB000F1F422E02093E9002FEF3091E800215046
:103FC00035FD06C035ED3A95F1F700002111F5CF2A
:103FD0002091E80025FF0BC050E040E065E070E074
:103FE0000E94C8218091E8008E778093E8000895B0
:103FF000CF93DF93D82FC92F809179028430F1F4C9
:10400000909112019923E9F09091730297FF19C0E2
:104010008093E9008FEF9091E800815095FD06C0F4
:1040200095E19A95F1F700008111F5CF8091E800B4
:1040300050E040E060E270E085FD1AC0DF91CF9172
:10404000089581E08093E9008FEF9091E80081501E
:1040500095FD06C095ED9A95F1F700008111F5CF19
:104060008091E80085FFEACF50E040E068E070E032
:104070008D2F9C2F0E94C8218091E8008E7780931D
:10408000E80080E2ED2FFC2FADE4B2E001900D924C
:104090008A95E1F7D3CF80917802811109C00E94FF
:1040A00050230E94AD238091E20084608093E2005F
:1040B0000895109278020895089508950C94D21AE4
:1040C00042E061EC81E00E94CC2242E061EC82E0BF
:1040D0000E94CC2242E061EC83E00E94CC2242E2CA
:1040E00061EC84E00C94CC2280917B02893089F1D0
:1040F00048F4823009F494C0833009F44FC0813011
:1041000041F008958A3009F47BC08B3009F461C016
:10411000089580917A02813A09F03FC08091E800C9
:10412000877F8093E80080917E0290917F02892BA7
:1041300061F460E28DE492E070E00E9417228091C9
:10414000E8008B778093E800089560E090E080E0DD
:10415000F3CF80917A02813201F580917E029091B5
:104160007F02009711F00397C1F48091E800877FE8
:104170008093E8008091E80082FF0BC08091F100FD
:1041800080936D028091E8008B778093E8000C9417
:104190000023809179028111EDCF089580917A02F8
:1041A000813AD9F780917E0290917F02892BA9F7FD
:1041B0008091E800877F8093E8008091E80080FF8D
:1041C000FCCF809112018093F1008091E8008E77FE
:1041D000DCCF80917A02813201F780917E0290914A
:1041E0007F02892BD1F68091E800877F8093E800D9
:1041F0000E94002380917C02809312010C942C1366
:1042000080917A02813249F68091E800877F80931D
:10421000E8000E94002380917D0280936E02089541
:1042200080917A02813A09F0B8CF8091E800877FC7
:104230008093E8008091E80080FFFCCF80916E02BF
:10424000C2CF84B7877F84BF0FB6F894A8958091BA
:104250006000886180936000109260000FBE80E86B
:1042600080936100109261000E94800E0E94502392
:104270000E94AD238091E20084608093E2007894F4
:104280000E942D260E94820E88E091E00E942C0E52
:1042900080917902853019F00E94880EF9CF0E9432
:1042A0008F1A80917702882399F30E94BD1A882380
:1042B00079F30E94B221ECCF9C01DA01892F992772
:1042C00083309105C1F068F48130910509F445C04F
:1042D000029761F48DE690E02CED30E12D933C9354
:1042E000089581329105E1F0829739F190E080E004
:1042F00030E020E0F3CFC9019927213059F0823016
:10430000910559F0E8EDF0E1892B81F7849190E077
:104310009F01E4CFE0ECF0E1F9CFECEAF0E1F6CF79
:10432000643020F7E62FF0E0EE0FFF1FE95CFE4F50
:104330002081318189E090E0D1CF6430B8F670E01F
:10434000FB01EE0FFF1FE15DFE4F20813181655DB6
:104350007E4FFB01808190E0C1CF82E190E029E4B3
:1043600031E1BCCF80E189BD82E189BD09B400FEA5
:10437000FDCF8091D8008F7D8093D8008091E000A0
:1043800082608093E0008091E00081FDFCCF089581
:10439000AF92BF92CF92DF92FF920F931F93CF9372
:1043A000DF936C01EB018A010E941F23F82E81111B
:1043B00023C00115110539F0F80180819181C81BD6
:1043C000D90BC80ED91EB12CA12C2097A9F0809131
:1043D000E80085FD22C08091E8008E778093E80098
:1043E00001151105A1F0F80180819181A80EB91E77
:1043F000B182A08285E0F82E8F2DDF91CF911F91A1
:104400000F91FF90DF90CF90BF90AF9008950E94E2
:104410001F238823D1F2F82EEFCFF60181916F018F
:104420008093F1002197FFEFAF1ABF0ACECFFC01B6
:10443000CB0120918002309181022617370790F03E
:10444000009729F42091E8002E772093E80040E0BF
:10445000009751F4411108C08091E80082FF31C0FB
:1044600080E00895C901F3CF209179022223A9F1B8
:104470002530A9F12091E80023FD2DC02091E8000E
:1044800022FDEACF2091E80020FFE2CF3091F30037
:104490002091F200009719F02830310558F041E0E2
:1044A0002830310509F040E02091E8002E77209374
:1044B000E800CECF41914093F10001972F5F3F4F2D
:1044C000E9CF80917902882341F0853041F08091D5
:1044D000E80083FFC1CF81E0089582E0089583E082
:1044E0000895FC01CB0120918002309181022617B2
:1044F000370790F0009729F42091E8002E77209359
:10450000E80040E0009751F4411108C08091E800B4
:1045100082FF32C080E00895C901F3CF2091790273
:104520002223B1F12530B1F12091E80023FD2EC006
:104530002091E80022FDEACF2091E80020FFE2CFA1
:104540003091F3002091F200009719F028303105E6
:1045500058F041E02830310509F040E02091E800B2
:104560002E772093E800CECF44914093F10031960E
:1045700001972F5F3F4FE8CF80917902882341F068
:10458000853041F08091E80083FFC0CF81E008953D
:1045900082E0089583E00895982F973028F08F7077
:1045A0008093E90081E008959093E900242F762F0D
:1045B00050E0981731F07091EC002091ED0050918F
:1045C000F00021FD02C09F5FE8CF3091EB003E7FFD
:1045D0003093EB003091ED003D7F3093ED00309152
:1045E000EB0031603093EB007093EC002093ED0012
:1045F0005093F0002091EE0027FDE5CF80E0089574
:1046000080917A0287FF13C08091E80082FF06C084
:104610008091E8008B778093E80004C08091790254
:104620008111F2CF0895809179028823D9F3809186
:10463000E80080FFF8CF8091E8008E77ECCF2091E2
:10464000E4003091E50095E6A9012091EC00822F6D
:10465000817020FF06C08091E80080FF06C080E0E6
:1046600008952091E80022FD1AC0809179028823E4
:1046700089F0853089F08091EB0085FD0FC0209195
:10468000E4003091E50042175307F9F29150E1F64A
:1046900084E0089582E0089583E0089581E008951C
:1046A0000E94BE230E94C623E0EEF0E0808181607C
:1046B0008083E8EDF0E080818F77808319BCA7EDDF
:1046C000B0E08C918E7F8C9380818F7E808310925E
:1046D000780208950F931F93CF93DF930E94BE2318
:1046E0000E94C623C8EDD0E088818F7788838881B7
:1046F0008068888388818F7D888319BC10927902B5
:1047000010927502109277021092760200EE10E07D
:10471000F80180818B7F808388818160888342E07B
:1047200060E080E00E94CC22E1EEF0E080818E7FAC
:104730008083E2EEF0E08081816080838081886008
:104740008083F80180818E7F808388818061888367
:10475000DF91CF911F910F910895E8EDF0E08081F6
:104760008F7E8083E7EDF0E080818160808384E04C
:1047700082BF81E0809378020C946A23E8EDF0E038
:1047800080818E7F80831092E20008951092DA007B
:104790001092E10008951F920F920FB60F9211240C
:1047A0002F933F934F935F936F937F938F939F9339
:1047B000AF93BF93EF93FF938091E10082FF0BC013
:1047C0008091E20082FF07C08091E1008B7F80939F
:1047D000E1000E942C268091DA0080FF19C08091B0
:1047E000D80080FF15C08091DA008E7F8093DA00B8
:1047F0008091D90080FF94C080E189BD82E189BDAC
:1048000009B400FEFDCF81E0809379020E944B2025
:104810008091E10080FF19C08091E20080FF15C007
:104820008091E2008E7F8093E2008091E2008061BF
:104830008093E2008091D80080628093D80019BCF8
:1048400085E0809379020E945D208091E10084FFE1
:1048500029C08091E20084FF25C080E189BD82E10A
:1048600089BD09B400FEFDCF8091D8008F7D809373
:10487000D8008091E1008F7E8093E1008091E2007A
:104880008F7E8093E2008091E20081608093E2005D
:1048900080917502882309F449C084E080937902ED
:1048A0000E945E208091E10083FF29C08091E20098
:1048B00083FF25C08091E100877F8093E10082E043
:1048C00080937902109275028091E1008E7F80932F
:1048D000E1008091E2008E7F8093E2008091E2000F
:1048E00080618093E20042E060E080E00E94CC22A0
:1048F0008091F00088608093F0000E945C20FF911E
:10490000EF91BF91AF919F918F917F916F915F9147
:104910004F913F912F910F900FBE0F901F901895C0
:1049200019BC109279020E94592072CF8091E30045
:1049300087FD02C081E0B2CF83E0B0CF1F920F921B
:104940000FB60F9211242F933F934F935F936F9362
:104950007F938F939F93AF93BF93CF93DF93EF9307
:10496000FF93D091E900DF708091EC00C82FC170F7
:1049700080FDC0E81092E9008091F000877F80936D
:10498000F00078940E94E2241092E9008091F000F7
:1049900088608093F000CD2BCF70C093E900FF9129
:1049A000EF91DF91CF91BF91AF919F918F917F91C7
:1049B0006F915F914F913F912F910F900FBE0F908C
:1049C0001F9018951F93CF93DF93CDB7DEB7AA97AB
:1049D0000FB6F894DEBF0FBECDBF8AE792E0FC01B0
:1049E00001962091F100208322E082389207B9F7E6
:1049F0000E9474208091E80083FF16C180917A02A2
:104A000090917B029A3008F00FC1E92FF0E0EF5F40
:104A1000F74D0C948D27803881F0823809F004C15D
:104A200080917E028F708093E9008091EB0085FB7E
:104A3000882780F91092E90006C080917602909153
:104A40007702911182609091E800977F9093E8003F
:104A50008093F1001092F1008091E8008E77E0C021
:104A6000882309F4CEC0823009F0DEC080917C0238
:104A70008111D1C080917E028F7009F4D5C08093DE
:104A8000E9002091EB0020FFC6C0933031F4809103
:104A9000EB0080628093EB00BEC09091EB009061D0
:104AA0009093EB0021E030E001C0220F8A95EAF7F5
:104AB0002093EA001092EA008091EB008860EACF30
:104AC0008111B2C010917C021F778091E300807841
:104AD000812B8093E3008091E800877F8093E8003A
:104AE0000E9400238091E80080FFFCCF8091E300CA
:104AF00080688093E30082E0111183E08093790263
:104B000093C08058823008F08FC080917C029091D1
:104B10007D028C3D23E09207A1F583E08A838AE23F
:104B200089834FB7F894DE01139620E03EE051E20E
:104B3000E32FF0E050935700E49120FF03C0E2958B
:104B4000EF703F5FEF708E2F90E0EA30C0F0C796B5
:104B50008D939D932F5F243159F74FBF8091E800CB
:104B6000877F8093E8006AE270E0CE0101960E94A0
:104B700017228091E8008B778093E80055C0C0969B
:104B8000E7CFAE014F5F5F4F60917E020E945C21D4
:104B9000BC01892B09F448C08091E800877F80938D
:104BA000E80089819A810E947122E3CF8038E1F583
:104BB0008091E800877F8093E80080917502809360
:104BC000F1004ACF811130C090917C02923060F5A3
:104BD0008091E800877F8093E800909375020E949F
:104BE000002380917502882311F084E005C0809134
:104BF000E30087FDFACF81E0809379020E94602074
:104C000013C080917C02813079F481E0933009F007
:104C100080E0809377021092E9008091E800877F1E
:104C20008093E8000E9400238091E80083FF0AC07F
:104C30008091E800877F8093E8008091EB0080629C
:104C40008093EB00AA960FB6F894DEBF0FBECDBFDF
:104C5000DF91CF911F9108950895CF9380917902AC
:104C60008823A1F0C091E900CF709091EC00892FCA
:104C7000817090FD80E8C82B1092E9008091E800D7
:104C800083FD0E94E224CF70C093E900CF91089584
:104C90000E944F266894B1110C94DE2608950E945C
:104CA000C32688F09F5798F0B92F9927B751B0F0D5
:104CB000E1F0660F771F881F991F1AF0BA95C9F7A0
:104CC00014C0B13091F00E94DD26B1E008950C943B
:104CD000DD26672F782F8827B85F39F0B93FCCF3EE
:104CE000869577956795B395D9F73EF4909580951D
:104CF000709561957F4F8F4F9F4F0895E89409C03D
:104D000097FB3EF490958095709561957F4F8F4FFE
:104D10009F4F9923A9F0F92F96E9BB279395F69514
:104D2000879577956795B795F111F8CFFAF4BB0F92
:104D300011F460FF1BC06F5F7F4F8F4F9F4F16C0F6
:104D4000882311F096E911C0772321F09EE8872F80
:104D5000762F05C0662371F096E8862F70E060E03C
:104D60002AF09A95660F771F881FDAF7880F9695B5
:104D7000879597F9089557FD9058440F551F59F09E
:104D80005F3F71F04795880F97FB991F61F09F3F38
:104D900079F087950895121613061406551FF2CF61
:104DA0004695F1DF08C0161617061806991FF1CFB1
:104DB00086957105610508940895E894BB276627D8
:104DC0007727CB0197F908950E94F7260C9468275E
:104DD0000E945A2738F00E94612720F0952311F095
:104DE0000C9451270C94572711240C94DE260E9412
:104DF000BB2670F3959FC1F3950F50E0551F629F3E
:104E0000F001729FBB27F00DB11D639FAA27F00D23
:104E1000B11DAA1F649F6627B00DA11D661F829F4A
:104E20002227B00DA11D621F739FB00DA11D621F2F
:104E3000839FA00D611D221F749F3327A00D611D4C
:104E4000231F849F600D211D822F762F6A2F11242E
:104E50009F5750409AF0F1F088234AF0EE0FFF1F61
:104E6000BB1F661F771F881F91505040A9F79E3FB8
:104E7000510580F00C9451270C94DE265F3FE4F33B
:104E8000983ED4F3869577956795B795F795E7950E
:104E90009F5FC1F7FE2B880F911D9695879597F917
:104EA000089597F99F6780E870E060E008959FEFAC
:104EB00080EC089500240A941616170618060906B1
:104EC000089500240A941216130614060506089580
:104ED000092E0394000C11F4882352F0BB0F40F408
:104EE000BF2B11F460FF04C06F5F7F4F8F4F9F4F48
:104EF000089597FB072E16F4009407D077FD09D08C
:104F00000E94932707FC05D03EF4909581959F4F12
:104F10000895709561957F4F0895EE0FFF1F0590DE
:104F2000F491E02D0994AA1BBB1B51E107C0AA1FF5
:104F3000BB1FA617B70710F0A61BB70B881F991F3A
:104F40005A95A9F780959095BC01CD010895F999DE
:104F5000FECF92BD81BDF89A992780B50895A8E14A
:104F6000B0E042E050E00C94CF27262FF999FECF15
:104F700092BD81BDF89A019700B4021639F01FBAAC
:104F800020BD0FB6F894FA9AF99A0FBE08950196CB
:104F9000272F0E94B6270C94B527DC01CB01FC011A
:104FA000F999FECF06C0F2BDE1BDF89A319600B482
:104FB0000D9241505040B8F70895F894FFCF2E0A53
:104FC0003A0A3E0A420A460A4A0A4E0A520A560A51
:104FD0005A0A5E0A620A660A6A0A6E0A720A760A41
:104FE0007A0AD710D7102F112F1173118F110711B3
:104FF00007119A11071162126212CD1207110711DF
:10500000D6120B253025142630251426602581253F
:065010001426D625E2255E
:105016001F022808140A321E681FF81FD51F9E1F7C
:105026006B1F01F0F1F4F5F6F767669694953793E2
:105036009291903330973435363132404D363917A8
:1050460012CA1194115B11EE1007112011391100CB
:00000001FF
